{
  "_format": "hh-sol-artifact-1",
  "contractName": "MonaimeNFT",
  "sourceName": "contracts/Monaime.sol",
  "abi": [
    {
      "inputs": [
        {
          "internalType": "address",
          "name": "initialOwner",
          "type": "address"
        }
      ],
      "stateMutability": "nonpayable",
      "type": "constructor"
    },
    {
      "inputs": [
        {
          "internalType": "address",
          "name": "sender",
          "type": "address"
        },
        {
          "internalType": "uint256",
          "name": "tokenId",
          "type": "uint256"
        },
        {
          "internalType": "address",
          "name": "owner",
          "type": "address"
        }
      ],
      "name": "ERC721IncorrectOwner",
      "type": "error"
    },
    {
      "inputs": [
        {
          "internalType": "address",
          "name": "operator",
          "type": "address"
        },
        {
          "internalType": "uint256",
          "name": "tokenId",
          "type": "uint256"
        }
      ],
      "name": "ERC721InsufficientApproval",
      "type": "error"
    },
    {
      "inputs": [
        {
          "internalType": "address",
          "name": "approver",
          "type": "address"
        }
      ],
      "name": "ERC721InvalidApprover",
      "type": "error"
    },
    {
      "inputs": [
        {
          "internalType": "address",
          "name": "operator",
          "type": "address"
        }
      ],
      "name": "ERC721InvalidOperator",
      "type": "error"
    },
    {
      "inputs": [
        {
          "internalType": "address",
          "name": "owner",
          "type": "address"
        }
      ],
      "name": "ERC721InvalidOwner",
      "type": "error"
    },
    {
      "inputs": [
        {
          "internalType": "address",
          "name": "receiver",
          "type": "address"
        }
      ],
      "name": "ERC721InvalidReceiver",
      "type": "error"
    },
    {
      "inputs": [
        {
          "internalType": "address",
          "name": "sender",
          "type": "address"
        }
      ],
      "name": "ERC721InvalidSender",
      "type": "error"
    },
    {
      "inputs": [
        {
          "internalType": "uint256",
          "name": "tokenId",
          "type": "uint256"
        }
      ],
      "name": "ERC721NonexistentToken",
      "type": "error"
    },
    {
      "inputs": [
        {
          "internalType": "address",
          "name": "owner",
          "type": "address"
        }
      ],
      "name": "OwnableInvalidOwner",
      "type": "error"
    },
    {
      "inputs": [
        {
          "internalType": "address",
          "name": "account",
          "type": "address"
        }
      ],
      "name": "OwnableUnauthorizedAccount",
      "type": "error"
    },
    {
      "anonymous": false,
      "inputs": [
        {
          "indexed": true,
          "internalType": "address",
          "name": "owner",
          "type": "address"
        },
        {
          "indexed": true,
          "internalType": "address",
          "name": "approved",
          "type": "address"
        },
        {
          "indexed": true,
          "internalType": "uint256",
          "name": "tokenId",
          "type": "uint256"
        }
      ],
      "name": "Approval",
      "type": "event"
    },
    {
      "anonymous": false,
      "inputs": [
        {
          "indexed": true,
          "internalType": "address",
          "name": "owner",
          "type": "address"
        },
        {
          "indexed": true,
          "internalType": "address",
          "name": "operator",
          "type": "address"
        },
        {
          "indexed": false,
          "internalType": "bool",
          "name": "approved",
          "type": "bool"
        }
      ],
      "name": "ApprovalForAll",
      "type": "event"
    },
    {
      "anonymous": false,
      "inputs": [
        {
          "indexed": false,
          "internalType": "uint256",
          "name": "_fromTokenId",
          "type": "uint256"
        },
        {
          "indexed": false,
          "internalType": "uint256",
          "name": "_toTokenId",
          "type": "uint256"
        }
      ],
      "name": "BatchMetadataUpdate",
      "type": "event"
    },
    {
      "anonymous": false,
      "inputs": [
        {
          "indexed": false,
          "internalType": "uint256",
          "name": "_tokenId",
          "type": "uint256"
        }
      ],
      "name": "MetadataUpdate",
      "type": "event"
    },
    {
      "anonymous": false,
      "inputs": [
        {
          "indexed": true,
          "internalType": "address",
          "name": "previousOwner",
          "type": "address"
        },
        {
          "indexed": true,
          "internalType": "address",
          "name": "newOwner",
          "type": "address"
        }
      ],
      "name": "OwnershipTransferred",
      "type": "event"
    },
    {
      "anonymous": false,
      "inputs": [
        {
          "indexed": true,
          "internalType": "address",
          "name": "from",
          "type": "address"
        },
        {
          "indexed": true,
          "internalType": "address",
          "name": "to",
          "type": "address"
        },
        {
          "indexed": true,
          "internalType": "uint256",
          "name": "tokenId",
          "type": "uint256"
        }
      ],
      "name": "Transfer",
      "type": "event"
    },
    {
      "inputs": [
        {
          "internalType": "address",
          "name": "to",
          "type": "address"
        },
        {
          "internalType": "uint256",
          "name": "tokenId",
          "type": "uint256"
        }
      ],
      "name": "approve",
      "outputs": [],
      "stateMutability": "nonpayable",
      "type": "function"
    },
    {
      "inputs": [
        {
          "internalType": "address",
          "name": "owner",
          "type": "address"
        }
      ],
      "name": "balanceOf",
      "outputs": [
        {
          "internalType": "uint256",
          "name": "",
          "type": "uint256"
        }
      ],
      "stateMutability": "view",
      "type": "function"
    },
    {
      "inputs": [
        {
          "internalType": "uint256",
          "name": "tokenId",
          "type": "uint256"
        }
      ],
      "name": "getApproved",
      "outputs": [
        {
          "internalType": "address",
          "name": "",
          "type": "address"
        }
      ],
      "stateMutability": "view",
      "type": "function"
    },
    {
      "inputs": [
        {
          "internalType": "address",
          "name": "owner",
          "type": "address"
        },
        {
          "internalType": "address",
          "name": "operator",
          "type": "address"
        }
      ],
      "name": "isApprovedForAll",
      "outputs": [
        {
          "internalType": "bool",
          "name": "",
          "type": "bool"
        }
      ],
      "stateMutability": "view",
      "type": "function"
    },
    {
      "inputs": [],
      "name": "name",
      "outputs": [
        {
          "internalType": "string",
          "name": "",
          "type": "string"
        }
      ],
      "stateMutability": "view",
      "type": "function"
    },
    {
      "inputs": [],
      "name": "owner",
      "outputs": [
        {
          "internalType": "address",
          "name": "",
          "type": "address"
        }
      ],
      "stateMutability": "view",
      "type": "function"
    },
    {
      "inputs": [
        {
          "internalType": "uint256",
          "name": "tokenId",
          "type": "uint256"
        }
      ],
      "name": "ownerOf",
      "outputs": [
        {
          "internalType": "address",
          "name": "",
          "type": "address"
        }
      ],
      "stateMutability": "view",
      "type": "function"
    },
    {
      "inputs": [],
      "name": "renounceOwnership",
      "outputs": [],
      "stateMutability": "nonpayable",
      "type": "function"
    },
    {
      "inputs": [
        {
          "internalType": "address",
          "name": "to",
          "type": "address"
        },
        {
          "internalType": "string",
          "name": "uri",
          "type": "string"
        }
      ],
      "name": "safeMint",
      "outputs": [],
      "stateMutability": "nonpayable",
      "type": "function"
    },
    {
      "inputs": [
        {
          "internalType": "address",
          "name": "from",
          "type": "address"
        },
        {
          "internalType": "address",
          "name": "to",
          "type": "address"
        },
        {
          "internalType": "uint256",
          "name": "tokenId",
          "type": "uint256"
        }
      ],
      "name": "safeTransferFrom",
      "outputs": [],
      "stateMutability": "nonpayable",
      "type": "function"
    },
    {
      "inputs": [
        {
          "internalType": "address",
          "name": "from",
          "type": "address"
        },
        {
          "internalType": "address",
          "name": "to",
          "type": "address"
        },
        {
          "internalType": "uint256",
          "name": "tokenId",
          "type": "uint256"
        },
        {
          "internalType": "bytes",
          "name": "data",
          "type": "bytes"
        }
      ],
      "name": "safeTransferFrom",
      "outputs": [],
      "stateMutability": "nonpayable",
      "type": "function"
    },
    {
      "inputs": [
        {
          "internalType": "address",
          "name": "operator",
          "type": "address"
        },
        {
          "internalType": "bool",
          "name": "approved",
          "type": "bool"
        }
      ],
      "name": "setApprovalForAll",
      "outputs": [],
      "stateMutability": "nonpayable",
      "type": "function"
    },
    {
      "inputs": [
        {
          "internalType": "bytes4",
          "name": "interfaceId",
          "type": "bytes4"
        }
      ],
      "name": "supportsInterface",
      "outputs": [
        {
          "internalType": "bool",
          "name": "",
          "type": "bool"
        }
      ],
      "stateMutability": "view",
      "type": "function"
    },
    {
      "inputs": [],
      "name": "symbol",
      "outputs": [
        {
          "internalType": "string",
          "name": "",
          "type": "string"
        }
      ],
      "stateMutability": "view",
      "type": "function"
    },
    {
      "inputs": [
        {
          "internalType": "uint256",
          "name": "tokenId",
          "type": "uint256"
        }
      ],
      "name": "tokenURI",
      "outputs": [
        {
          "internalType": "string",
          "name": "",
          "type": "string"
        }
      ],
      "stateMutability": "view",
      "type": "function"
    },
    {
      "inputs": [
        {
          "internalType": "address",
          "name": "from",
          "type": "address"
        },
        {
          "internalType": "address",
          "name": "to",
          "type": "address"
        },
        {
          "internalType": "uint256",
          "name": "tokenId",
          "type": "uint256"
        }
      ],
      "name": "transferFrom",
      "outputs": [],
      "stateMutability": "nonpayable",
      "type": "function"
    },
    {
      "inputs": [
        {
          "internalType": "address",
          "name": "newOwner",
          "type": "address"
        }
      ],
      "name": "transferOwnership",
      "outputs": [],
      "stateMutability": "nonpayable",
      "type": "function"
    }
  ],
  "bytecode": "0x608060405234801561001057600080fd5b50604051612dfd380380612dfd83398181016040528101906100329190610272565b806040518060400160405280600781526020017f4d6f6e61696d65000000000000000000000000000000000000000000000000008152506040518060400160405280600281526020017f4d4900000000000000000000000000000000000000000000000000000000000081525081600090816100ae91906104ef565b5080600190816100be91906104ef565b505050600073ffffffffffffffffffffffffffffffffffffffff168173ffffffffffffffffffffffffffffffffffffffff16036101335760006040517f1e4fbdf700000000000000000000000000000000000000000000000000000000815260040161012a91906105d0565b60405180910390fd5b6101428161014960201b60201c565b50506105eb565b6000600760009054906101000a900473ffffffffffffffffffffffffffffffffffffffff16905081600760006101000a81548173ffffffffffffffffffffffffffffffffffffffff021916908373ffffffffffffffffffffffffffffffffffffffff1602179055508173ffffffffffffffffffffffffffffffffffffffff168173ffffffffffffffffffffffffffffffffffffffff167f8be0079c531659141344cd1fd0a4f28419497f9722a3daafe3b4186f6b6457e060405160405180910390a35050565b600080fd5b600073ffffffffffffffffffffffffffffffffffffffff82169050919050565b600061023f82610214565b9050919050565b61024f81610234565b811461025a57600080fd5b50565b60008151905061026c81610246565b92915050565b6000602082840312156102885761028761020f565b5b60006102968482850161025d565b91505092915050565b600081519050919050565b7f4e487b7100000000000000000000000000000000000000000000000000000000600052604160045260246000fd5b7f4e487b7100000000000000000000000000000000000000000000000000000000600052602260045260246000fd5b6000600282049050600182168061032057607f821691505b602082108103610333576103326102d9565b5b50919050565b60008190508160005260206000209050919050565b60006020601f8301049050919050565b600082821b905092915050565b60006008830261039b7fffffffffffffffffffffffffffffffffffffffffffffffffffffffffffffffff8261035e565b6103a5868361035e565b95508019841693508086168417925050509392505050565b6000819050919050565b6000819050919050565b60006103ec6103e76103e2846103bd565b6103c7565b6103bd565b9050919050565b6000819050919050565b610406836103d1565b61041a610412826103f3565b84845461036b565b825550505050565b600090565b61042f610422565b61043a8184846103fd565b505050565b5b8181101561045e57610453600082610427565b600181019050610440565b5050565b601f8211156104a35761047481610339565b61047d8461034e565b8101602085101561048c578190505b6104a06104988561034e565b83018261043f565b50505b505050565b600082821c905092915050565b60006104c6600019846008026104a8565b1980831691505092915050565b60006104df83836104b5565b9150826002028217905092915050565b6104f88261029f565b67ffffffffffffffff811115610511576105106102aa565b5b61051b8254610308565b610526828285610462565b600060209050601f8311600181146105595760008415610547578287015190505b61055185826104d3565b8655506105b9565b601f19841661056786610339565b60005b8281101561058f5784890151825560018201915060208501945060208101905061056a565b868310156105ac57848901516105a8601f8916826104b5565b8355505b6001600288020188555050505b505050505050565b6105ca81610234565b82525050565b60006020820190506105e560008301846105c1565b92915050565b612803806105fa6000396000f3fe608060405234801561001057600080fd5b506004361061010b5760003560e01c8063715018a6116100a2578063b88d4fde11610071578063b88d4fde146102a4578063c87b56dd146102c0578063d204c45e146102f0578063e985e9c51461030c578063f2fde38b1461033c5761010b565b8063715018a6146102425780638da5cb5b1461024c57806395d89b411461026a578063a22cb465146102885761010b565b806323b872dd116100de57806323b872dd146101aa57806342842e0e146101c65780636352211e146101e257806370a08231146102125761010b565b806301ffc9a71461011057806306fdde0314610140578063081812fc1461015e578063095ea7b31461018e575b600080fd5b61012a60048036038101906101259190611bc9565b610358565b6040516101379190611c11565b60405180910390f35b61014861036a565b6040516101559190611cbc565b60405180910390f35b61017860048036038101906101739190611d14565b6103fc565b6040516101859190611d82565b60405180910390f35b6101a860048036038101906101a39190611dc9565b610418565b005b6101c460048036038101906101bf9190611e09565b61042e565b005b6101e060048036038101906101db9190611e09565b610530565b005b6101fc60048036038101906101f79190611d14565b610550565b6040516102099190611d82565b60405180910390f35b61022c60048036038101906102279190611e5c565b610562565b6040516102399190611e98565b60405180910390f35b61024a61061c565b005b610254610630565b6040516102619190611d82565b60405180910390f35b61027261065a565b60405161027f9190611cbc565b60405180910390f35b6102a2600480360381019061029d9190611edf565b6106ec565b005b6102be60048036038101906102b99190612054565b610702565b005b6102da60048036038101906102d59190611d14565b610727565b6040516102e79190611cbc565b60405180910390f35b61030a60048036038101906103059190612178565b610739565b005b610326600480360381019061032191906121d4565b61085e565b6040516103339190611c11565b60405180910390f35b61035660048036038101906103519190611e5c565b6108f2565b005b600061036382610978565b9050919050565b60606000805461037990612243565b80601f01602080910402602001604051908101604052809291908181526020018280546103a590612243565b80156103f25780601f106103c7576101008083540402835291602001916103f2565b820191906000526020600020905b8154815290600101906020018083116103d557829003601f168201915b5050505050905090565b6000610407826109d9565b5061041182610a61565b9050919050565b61042a8282610425610a9e565b610aa6565b5050565b600073ffffffffffffffffffffffffffffffffffffffff168273ffffffffffffffffffffffffffffffffffffffff16036104a05760006040517f64a0ae920000000000000000000000000000000000000000000000000000000081526004016104979190611d82565b60405180910390fd5b60006104b483836104af610a9e565b610ab8565b90508373ffffffffffffffffffffffffffffffffffffffff168173ffffffffffffffffffffffffffffffffffffffff161461052a578382826040517f64283d7b00000000000000000000000000000000000000000000000000000000815260040161052193929190612274565b60405180910390fd5b50505050565b61054b83838360405180602001604052806000815250610702565b505050565b600061055b826109d9565b9050919050565b60008073ffffffffffffffffffffffffffffffffffffffff168273ffffffffffffffffffffffffffffffffffffffff16036105d55760006040517f89c62b640000000000000000000000000000000000000000000000000000000081526004016105cc9190611d82565b60405180910390fd5b600360008373ffffffffffffffffffffffffffffffffffffffff1673ffffffffffffffffffffffffffffffffffffffff168152602001908152602001600020549050919050565b610624610cd2565b61062e6000610d59565b565b6000600760009054906101000a900473ffffffffffffffffffffffffffffffffffffffff16905090565b60606001805461066990612243565b80601f016020809104026020016040519081016040528092919081815260200182805461069590612243565b80156106e25780601f106106b7576101008083540402835291602001916106e2565b820191906000526020600020905b8154815290600101906020018083116106c557829003601f168201915b5050505050905090565b6106fe6106f7610a9e565b8383610e1f565b5050565b61070d84848461042e565b610721610718610a9e565b85858585610f8e565b50505050565b60606107328261113f565b9050919050565b610741610cd2565b600860008373ffffffffffffffffffffffffffffffffffffffff1673ffffffffffffffffffffffffffffffffffffffff16815260200190815260200160002060009054906101000a900460ff16156107ce576040517f08c379a00000000000000000000000000000000000000000000000000000000081526004016107c59061231d565b60405180910390fd5b6001600860008473ffffffffffffffffffffffffffffffffffffffff1673ffffffffffffffffffffffffffffffffffffffff16815260200190815260200160002060006101000a81548160ff02191690831515021790555060006009549050600960008154809291906108409061236c565b919050555061084f8382611252565b6108598183611270565b505050565b6000600560008473ffffffffffffffffffffffffffffffffffffffff1673ffffffffffffffffffffffffffffffffffffffff16815260200190815260200160002060008373ffffffffffffffffffffffffffffffffffffffff1673ffffffffffffffffffffffffffffffffffffffff16815260200190815260200160002060009054906101000a900460ff16905092915050565b6108fa610cd2565b600073ffffffffffffffffffffffffffffffffffffffff168173ffffffffffffffffffffffffffffffffffffffff160361096c5760006040517f1e4fbdf70000000000000000000000000000000000000000000000000000000081526004016109639190611d82565b60405180910390fd5b61097581610d59565b50565b6000634906490660e01b7bffffffffffffffffffffffffffffffffffffffffffffffffffffffff1916827bffffffffffffffffffffffffffffffffffffffffffffffffffffffff191614806109d257506109d1826112cc565b5b9050919050565b6000806109e5836113ae565b9050600073ffffffffffffffffffffffffffffffffffffffff168173ffffffffffffffffffffffffffffffffffffffff1603610a5857826040517f7e273289000000000000000000000000000000000000000000000000000000008152600401610a4f9190611e98565b60405180910390fd5b80915050919050565b60006004600083815260200190815260200160002060009054906101000a900473ffffffffffffffffffffffffffffffffffffffff169050919050565b600033905090565b610ab383838360016113eb565b505050565b600080610ac4846113ae565b9050600073ffffffffffffffffffffffffffffffffffffffff168373ffffffffffffffffffffffffffffffffffffffff1614610b0657610b058184866115b0565b5b600073ffffffffffffffffffffffffffffffffffffffff168173ffffffffffffffffffffffffffffffffffffffff1614610b9757610b486000856000806113eb565b6001600360008373ffffffffffffffffffffffffffffffffffffffff1673ffffffffffffffffffffffffffffffffffffffff168152602001908152602001600020600082825403925050819055505b600073ffffffffffffffffffffffffffffffffffffffff168573ffffffffffffffffffffffffffffffffffffffff1614610c1a576001600360008773ffffffffffffffffffffffffffffffffffffffff1673ffffffffffffffffffffffffffffffffffffffff168152602001908152602001600020600082825401925050819055505b846002600086815260200190815260200160002060006101000a81548173ffffffffffffffffffffffffffffffffffffffff021916908373ffffffffffffffffffffffffffffffffffffffff160217905550838573ffffffffffffffffffffffffffffffffffffffff168273ffffffffffffffffffffffffffffffffffffffff167fddf252ad1be2c89b69c2b068fc378daa952ba7f163c4a11628f55a4df523b3ef60405160405180910390a4809150509392505050565b610cda610a9e565b73ffffffffffffffffffffffffffffffffffffffff16610cf8610630565b73ffffffffffffffffffffffffffffffffffffffff1614610d5757610d1b610a9e565b6040517f118cdaa7000000000000000000000000000000000000000000000000000000008152600401610d4e9190611d82565b60405180910390fd5b565b6000600760009054906101000a900473ffffffffffffffffffffffffffffffffffffffff16905081600760006101000a81548173ffffffffffffffffffffffffffffffffffffffff021916908373ffffffffffffffffffffffffffffffffffffffff1602179055508173ffffffffffffffffffffffffffffffffffffffff168173ffffffffffffffffffffffffffffffffffffffff167f8be0079c531659141344cd1fd0a4f28419497f9722a3daafe3b4186f6b6457e060405160405180910390a35050565b600073ffffffffffffffffffffffffffffffffffffffff168273ffffffffffffffffffffffffffffffffffffffff1603610e9057816040517f5b08ba18000000000000000000000000000000000000000000000000000000008152600401610e879190611d82565b60405180910390fd5b80600560008573ffffffffffffffffffffffffffffffffffffffff1673ffffffffffffffffffffffffffffffffffffffff16815260200190815260200160002060008473ffffffffffffffffffffffffffffffffffffffff1673ffffffffffffffffffffffffffffffffffffffff16815260200190815260200160002060006101000a81548160ff0219169083151502179055508173ffffffffffffffffffffffffffffffffffffffff168373ffffffffffffffffffffffffffffffffffffffff167f17307eab39ab6107e8899845ad3d59bd9653f200f220920489ca2b5937696c3183604051610f819190611c11565b60405180910390a3505050565b60008373ffffffffffffffffffffffffffffffffffffffff163b1115611138578273ffffffffffffffffffffffffffffffffffffffff1663150b7a02868685856040518563ffffffff1660e01b8152600401610fed9493929190612409565b6020604051808303816000875af192505050801561102957506040513d601f19601f82011682018060405250810190611026919061246a565b60015b6110ad573d8060008114611059576040519150601f19603f3d011682016040523d82523d6000602084013e61105e565b606091505b5060008151036110a557836040517f64a0ae9200000000000000000000000000000000000000000000000000000000815260040161109c9190611d82565b60405180910390fd5b805181602001fd5b63150b7a0260e01b7bffffffffffffffffffffffffffffffffffffffffffffffffffffffff1916817bffffffffffffffffffffffffffffffffffffffffffffffffffffffff19161461113657836040517f64a0ae9200000000000000000000000000000000000000000000000000000000815260040161112d9190611d82565b60405180910390fd5b505b5050505050565b606061114a826109d9565b50600060066000848152602001908152602001600020805461116b90612243565b80601f016020809104026020016040519081016040528092919081815260200182805461119790612243565b80156111e45780601f106111b9576101008083540402835291602001916111e4565b820191906000526020600020905b8154815290600101906020018083116111c757829003601f168201915b5050505050905060006111f5611674565b9050600081510361120a57819250505061124d565b60008251111561123f5780826040516020016112279291906124d3565b6040516020818303038152906040529250505061124d565b6112488461168b565b925050505b919050565b61126c8282604051806020016040528060008152506116f4565b5050565b8060066000848152602001908152602001600020908161129091906126a3565b507ff8e1a15aba9398e019f0b49df1a4fde98ee17ae345cb5f6b5e2c27f5033e8ce7826040516112c09190611e98565b60405180910390a15050565b60007f80ac58cd000000000000000000000000000000000000000000000000000000007bffffffffffffffffffffffffffffffffffffffffffffffffffffffff1916827bffffffffffffffffffffffffffffffffffffffffffffffffffffffff1916148061139757507f5b5e139f000000000000000000000000000000000000000000000000000000007bffffffffffffffffffffffffffffffffffffffffffffffffffffffff1916827bffffffffffffffffffffffffffffffffffffffffffffffffffffffff1916145b806113a757506113a682611718565b5b9050919050565b60006002600083815260200190815260200160002060009054906101000a900473ffffffffffffffffffffffffffffffffffffffff169050919050565b80806114245750600073ffffffffffffffffffffffffffffffffffffffff168273ffffffffffffffffffffffffffffffffffffffff1614155b15611558576000611434846109d9565b9050600073ffffffffffffffffffffffffffffffffffffffff168373ffffffffffffffffffffffffffffffffffffffff161415801561149f57508273ffffffffffffffffffffffffffffffffffffffff168173ffffffffffffffffffffffffffffffffffffffff1614155b80156114b257506114b0818461085e565b155b156114f457826040517fa9fbf51f0000000000000000000000000000000000000000000000000000000081526004016114eb9190611d82565b60405180910390fd5b811561155657838573ffffffffffffffffffffffffffffffffffffffff168273ffffffffffffffffffffffffffffffffffffffff167f8c5be1e5ebec7d5bd14f71427d1e84f3dd0314c0f7b2291e5b200ac8c7c3b92560405160405180910390a45b505b836004600085815260200190815260200160002060006101000a81548173ffffffffffffffffffffffffffffffffffffffff021916908373ffffffffffffffffffffffffffffffffffffffff16021790555050505050565b6115bb838383611782565b61166f57600073ffffffffffffffffffffffffffffffffffffffff168373ffffffffffffffffffffffffffffffffffffffff160361163057806040517f7e2732890000000000000000000000000000000000000000000000000000000081526004016116279190611e98565b60405180910390fd5b81816040517f177e802f000000000000000000000000000000000000000000000000000000008152600401611666929190612775565b60405180910390fd5b505050565b606060405180602001604052806000815250905090565b6060611696826109d9565b5060006116a1611674565b905060008151116116c157604051806020016040528060008152506116ec565b806116cb84611843565b6040516020016116dc9291906124d3565b6040516020818303038152906040525b915050919050565b6116fe8383611911565b611713611709610a9e565b6000858585610f8e565b505050565b60007f01ffc9a7000000000000000000000000000000000000000000000000000000007bffffffffffffffffffffffffffffffffffffffffffffffffffffffff1916827bffffffffffffffffffffffffffffffffffffffffffffffffffffffff1916149050919050565b60008073ffffffffffffffffffffffffffffffffffffffff168373ffffffffffffffffffffffffffffffffffffffff161415801561183a57508273ffffffffffffffffffffffffffffffffffffffff168473ffffffffffffffffffffffffffffffffffffffff1614806117fb57506117fa848461085e565b5b8061183957508273ffffffffffffffffffffffffffffffffffffffff1661182183610a61565b73ffffffffffffffffffffffffffffffffffffffff16145b5b90509392505050565b60606000600161185284611a0a565b01905060008167ffffffffffffffff81111561187157611870611f29565b5b6040519080825280601f01601f1916602001820160405280156118a35781602001600182028036833780820191505090505b509050600082602001820190505b600115611906578080600190039150507f3031323334353637383961626364656600000000000000000000000000000000600a86061a8153600a85816118fa576118f961279e565b5b049450600085036118b1575b819350505050919050565b600073ffffffffffffffffffffffffffffffffffffffff168273ffffffffffffffffffffffffffffffffffffffff16036119835760006040517f64a0ae9200000000000000000000000000000000000000000000000000000000815260040161197a9190611d82565b60405180910390fd5b600061199183836000610ab8565b9050600073ffffffffffffffffffffffffffffffffffffffff168173ffffffffffffffffffffffffffffffffffffffff1614611a055760006040517f73c6ac6e0000000000000000000000000000000000000000000000000000000081526004016119fc9190611d82565b60405180910390fd5b505050565b600080600090507a184f03e93ff9f4daa797ed6e38ed64bf6a1f0100000000000000008310611a68577a184f03e93ff9f4daa797ed6e38ed64bf6a1f0100000000000000008381611a5e57611a5d61279e565b5b0492506040810190505b6d04ee2d6d415b85acef81000000008310611aa5576d04ee2d6d415b85acef81000000008381611a9b57611a9a61279e565b5b0492506020810190505b662386f26fc100008310611ad457662386f26fc100008381611aca57611ac961279e565b5b0492506010810190505b6305f5e1008310611afd576305f5e1008381611af357611af261279e565b5b0492506008810190505b6127108310611b22576127108381611b1857611b1761279e565b5b0492506004810190505b60648310611b455760648381611b3b57611b3a61279e565b5b0492506002810190505b600a8310611b54576001810190505b80915050919050565b6000604051905090565b600080fd5b600080fd5b60007fffffffff0000000000000000000000000000000000000000000000000000000082169050919050565b611ba681611b71565b8114611bb157600080fd5b50565b600081359050611bc381611b9d565b92915050565b600060208284031215611bdf57611bde611b67565b5b6000611bed84828501611bb4565b91505092915050565b60008115159050919050565b611c0b81611bf6565b82525050565b6000602082019050611c266000830184611c02565b92915050565b600081519050919050565b600082825260208201905092915050565b60005b83811015611c66578082015181840152602081019050611c4b565b60008484015250505050565b6000601f19601f8301169050919050565b6000611c8e82611c2c565b611c988185611c37565b9350611ca8818560208601611c48565b611cb181611c72565b840191505092915050565b60006020820190508181036000830152611cd68184611c83565b905092915050565b6000819050919050565b611cf181611cde565b8114611cfc57600080fd5b50565b600081359050611d0e81611ce8565b92915050565b600060208284031215611d2a57611d29611b67565b5b6000611d3884828501611cff565b91505092915050565b600073ffffffffffffffffffffffffffffffffffffffff82169050919050565b6000611d6c82611d41565b9050919050565b611d7c81611d61565b82525050565b6000602082019050611d976000830184611d73565b92915050565b611da681611d61565b8114611db157600080fd5b50565b600081359050611dc381611d9d565b92915050565b60008060408385031215611de057611ddf611b67565b5b6000611dee85828601611db4565b9250506020611dff85828601611cff565b9150509250929050565b600080600060608486031215611e2257611e21611b67565b5b6000611e3086828701611db4565b9350506020611e4186828701611db4565b9250506040611e5286828701611cff565b9150509250925092565b600060208284031215611e7257611e71611b67565b5b6000611e8084828501611db4565b91505092915050565b611e9281611cde565b82525050565b6000602082019050611ead6000830184611e89565b92915050565b611ebc81611bf6565b8114611ec757600080fd5b50565b600081359050611ed981611eb3565b92915050565b60008060408385031215611ef657611ef5611b67565b5b6000611f0485828601611db4565b9250506020611f1585828601611eca565b9150509250929050565b600080fd5b600080fd5b7f4e487b7100000000000000000000000000000000000000000000000000000000600052604160045260246000fd5b611f6182611c72565b810181811067ffffffffffffffff82111715611f8057611f7f611f29565b5b80604052505050565b6000611f93611b5d565b9050611f9f8282611f58565b919050565b600067ffffffffffffffff821115611fbf57611fbe611f29565b5b611fc882611c72565b9050602081019050919050565b82818337600083830152505050565b6000611ff7611ff284611fa4565b611f89565b90508281526020810184848401111561201357612012611f24565b5b61201e848285611fd5565b509392505050565b600082601f83011261203b5761203a611f1f565b5b813561204b848260208601611fe4565b91505092915050565b6000806000806080858703121561206e5761206d611b67565b5b600061207c87828801611db4565b945050602061208d87828801611db4565b935050604061209e87828801611cff565b925050606085013567ffffffffffffffff8111156120bf576120be611b6c565b5b6120cb87828801612026565b91505092959194509250565b600067ffffffffffffffff8211156120f2576120f1611f29565b5b6120fb82611c72565b9050602081019050919050565b600061211b612116846120d7565b611f89565b90508281526020810184848401111561213757612136611f24565b5b612142848285611fd5565b509392505050565b600082601f83011261215f5761215e611f1f565b5b813561216f848260208601612108565b91505092915050565b6000806040838503121561218f5761218e611b67565b5b600061219d85828601611db4565b925050602083013567ffffffffffffffff8111156121be576121bd611b6c565b5b6121ca8582860161214a565b9150509250929050565b600080604083850312156121eb576121ea611b67565b5b60006121f985828601611db4565b925050602061220a85828601611db4565b9150509250929050565b7f4e487b7100000000000000000000000000000000000000000000000000000000600052602260045260246000fd5b6000600282049050600182168061225b57607f821691505b60208210810361226e5761226d612214565b5b50919050565b60006060820190506122896000830186611d73565b6122966020830185611e89565b6122a36040830184611d73565b949350505050565b7f4561636820616464726573732063616e206f6e6c79206d696e74206f6e65204e60008201527f4654000000000000000000000000000000000000000000000000000000000000602082015250565b6000612307602283611c37565b9150612312826122ab565b604082019050919050565b60006020820190508181036000830152612336816122fa565b9050919050565b7f4e487b7100000000000000000000000000000000000000000000000000000000600052601160045260246000fd5b600061237782611cde565b91507fffffffffffffffffffffffffffffffffffffffffffffffffffffffffffffffff82036123a9576123a861233d565b5b600182019050919050565b600081519050919050565b600082825260208201905092915050565b60006123db826123b4565b6123e581856123bf565b93506123f5818560208601611c48565b6123fe81611c72565b840191505092915050565b600060808201905061241e6000830187611d73565b61242b6020830186611d73565b6124386040830185611e89565b818103606083015261244a81846123d0565b905095945050505050565b60008151905061246481611b9d565b92915050565b6000602082840312156124805761247f611b67565b5b600061248e84828501612455565b91505092915050565b600081905092915050565b60006124ad82611c2c565b6124b78185612497565b93506124c7818560208601611c48565b80840191505092915050565b60006124df82856124a2565b91506124eb82846124a2565b91508190509392505050565b60008190508160005260206000209050919050565b60006020601f8301049050919050565b600082821b905092915050565b6000600883026125597fffffffffffffffffffffffffffffffffffffffffffffffffffffffffffffffff8261251c565b612563868361251c565b95508019841693508086168417925050509392505050565b6000819050919050565b60006125a061259b61259684611cde565b61257b565b611cde565b9050919050565b6000819050919050565b6125ba83612585565b6125ce6125c6826125a7565b848454612529565b825550505050565b600090565b6125e36125d6565b6125ee8184846125b1565b505050565b5b81811015612612576126076000826125db565b6001810190506125f4565b5050565b601f82111561265757612628816124f7565b6126318461250c565b81016020851015612640578190505b61265461264c8561250c565b8301826125f3565b50505b505050565b600082821c905092915050565b600061267a6000198460080261265c565b1980831691505092915050565b60006126938383612669565b9150826002028217905092915050565b6126ac82611c2c565b67ffffffffffffffff8111156126c5576126c4611f29565b5b6126cf8254612243565b6126da828285612616565b600060209050601f83116001811461270d57600084156126fb578287015190505b6127058582612687565b86555061276d565b601f19841661271b866124f7565b60005b828110156127435784890151825560018201915060208501945060208101905061271e565b86831015612760578489015161275c601f891682612669565b8355505b6001600288020188555050505b505050505050565b600060408201905061278a6000830185611d73565b6127976020830184611e89565b9392505050565b7f4e487b7100000000000000000000000000000000000000000000000000000000600052601260045260246000fdfea264697066735822122098ffdb0e3b0668cbb1f461239488565a03722ab846789914cbfcd174425c970664736f6c634300081c0033",
  "linkReferences": {},
  "deployedLinkReferences": {}
}